:100000000C9446000C9465000C9465000C946500FB
:100010000C9465000C9465000C9465000C946500CC
:100020000C9465000C9465000C9465000C946500BC
:100030000C9465000C94E3000C9465000C9465002E
:100040000C9465000C9465000C9465000C9465009C
:100050000C9465000C9465000C9465000C9465008C
:100060000C9465000C9465000C9465000C9465007C
:100070000C9465000C9465000C9465000C9465006C
:100080000C9465000C9465000C94650011241FBE4F
:10009000CFEFD0E4DEBFCDBF11E0A0E0B1E0E6E1FC
:1000A000F6E000E00BBF02C007900D92A831B10747
:1000B000D9F721E0A8E1B1E001C01D92AD32B2074D
:1000C000E1F70E94DB020C9409030C940000CF932B
:1000D000DF9300D000D0CDB7DEB769837A838B83FE
:1000E0009C8389819A81AB81BC818093000190932C
:1000F0000101A0930201B09303018091000190914E
:100100000101A0910201B091030180931901909324
:100110001A01A0931B01B0931C0100000F900F90D7
:100120000F900F90DF91CF910895CF93DF93CDB7CC
:10013000DEB781E890E02BE0FC01208388E890E0C6
:100140002DE730E0FC01318320838FE690E022E050
:10015000FC01208384E890E0FC01118210828091F0
:10016000000190910101A0910201B09103018093DF
:10017000190190931A01A0931B01B0931C018FE504
:1001800090E02FE530E0F90120812068FC01208318
:100190000000DF91CF910895CF93DF93CDB7DEB705
:1001A00081E890E0FC0110820000DF91CF9108957A
:1001B000CF93DF93CDB7DEB781E0809318010000C5
:1001C000DF91CF9108951F920F9200905F000F92E0
:1001D000112400905B000F922F933F934F935F93F6
:1001E0006F937F938F939F93AF93BF93EF93FF93FF
:1001F000CF93DF93CDB7DEB78091190190911A01AB
:10020000A0911B01B0911C010197A109B109809334
:10021000190190931A01A0931B01B0931C018091C6
:10022000190190911A01A0911B01B0911C01892B19
:100230008A2B8B2B91F40E94D80080910001909121
:100240000101A0910201B0910301809319019093E3
:100250001A01A0931B01B0931C010000DF91CF9104
:10026000FF91EF91BF91AF919F918F917F916F918E
:100270005F914F913F912F910F9000925B000F90F3
:1002800000925F000F901F901895CF93DF9300D0DE
:100290001F92CDB7DEB789837B836A8389818A30D9
:1002A00031F48A819B81BC018DE00E94450180EC84
:1002B00090E0FC018081882F90E080729927892B43
:1002C000B1F386EC90E02981FC01208380E090E08E
:1002D0000F900F900F90DF91CF910895CF93DF9300
:1002E000CDB7DEB78091290190912A018130910527
:1002F00069F08130910518F0029779F030C081E003
:1003000090E090932A018093290129C082E090E037
:1003100090932A018093290122C08091210190911C
:1003200022018C32914059F4109222011092210145
:1003300081E090E090932A01809329010FC0809181
:100340002101909122010196909322018093210135
:1003500082E090E090932A0180932901000080912F
:10036000290190912A01019709F021C080911F0174
:10037000823069F480911F01882F90E08E5E9E4F3D
:10038000FC01808180931D0110921F010FC080919C
:100390001F01882F90E08E5E9E4FFC01808180932C
:1003A0001D0180911F018F5F80931F0100000000DD
:1003B000DF91CF910895CF93DF93CDB7DEB78091D2
:1003C0002701909128018130910569F081309105D4
:1003D00018F0029779F030C081E090E09093280106
:1003E0008093270129C082E090E0909328018093B8
:1003F000270122C08091230190912401883E9340DF
:1004000059F4109224011092230181E090E090931E
:100410002801809327010FC080912301909124012E
:100420000196909324018093230182E090E09093C1
:1004300028018093270100008091270190912801D5
:100440008130910519F0029711F122C080912001AD
:10045000813069F480912001882F90E08B5E9E4F5F
:10046000FC01808180931E011092200111C08091B7
:100470002001882F90E08B5E9E4FFC01808180934D
:100480001E01809120018F5F8093200101C0000038
:100490000000DF91CF910895CF93DF93CDB7DEB702
:1004A00080912B0190912C018130910569F0813070
:1004B000910518F0029711F13BC081E090E0909314
:1004C0002C0180932B0134C080E290E0FC018081FC
:1004D000882F90E08095909587709927049739F43C
:1004E00082E090E090932C0180932B0121C081E069
:1004F00090E090932C0180932B011AC080E290E051
:10050000FC018081882F90E08095909587709927D5
:10051000049739F482E090E090932C0180932B01B2
:1005200006C081E090E090932C0180932B010000A5
:1005300080912B0190912C018130910519F0029747
:1005400031F021C010922501109226011CC080912B
:100550002501833048F480E18093260180912501B4
:100560008F5F809325010EC080912501853040F476
:1005700010922601809125018F5F8093250102C092
:100580001092250100000000DF91CF910895CF93D4
:10059000DF93CDB7DEB785E290E030911D01209169
:1005A0001E01322B20912601232BFC012083000009
:1005B000DF91CF910895CF93DF93CDB7DEB781E27E
:1005C00090E0FC01108282E290E02FEFFC0120839A
:1005D00084E290E02FEFFC01208385E290E0FC01B3
:1005E000108261E070E080E090E00E9467000E946D
:1005F00095000E946E010E94DB010E944C020E9445
:10060000C7020000809118018823E1F310921801BD
:06061000F0CFF894FFCFCB
:10061600010000000000000200000000450100008B
:080626000000010204080000BD
:00000001FF
