:100000000C944D000C946C000C946C000C946C00DF
:100010000C946C000C946C000C946C000C946C00B0
:100020000C946C000C946C000C946C000C946C00A0
:100030000C946C000C94EA000C946C000C946C0012
:100040000C946C000C946C000C946C000C946C0080
:100050000C946C000C946C000C946C000C946C0070
:100060000C946C000C946C000C946C000C946C0060
:100070000C946C000C946C000C946C000C946C0050
:100080000C946C000C946C000C946C001C03210309
:1000900059035E038A0374038F0311241FBECFEF3D
:1000A000D0E4DEBFCDBF11E0A0E0B1E0E6E9FCE0C6
:1000B00000E00BBF02C007900D92A832B107D9F73C
:1000C00021E0A8E2B1E001C01D92AD36B207E1F730
:1000D0000E9487040C9449060C940000CF93DF9390
:1000E00000D000D0CDB7DEB769837A838B839C8341
:1000F00089819A81AB81BC81809300019093010139
:10010000A0930201B093030180910001909101013D
:10011000A0910201B09103018093290190932A01DB
:10012000A0932B01B0932C0100000F900F900F9023
:100130000F90DF91CF910895CF93DF93CDB7DEB7C6
:1001400081E890E02BE0FC01208388E890E02DE737
:1001500030E0FC01318320838FE690E022E0FC0157
:10016000208384E890E0FC011182108280910001DC
:1001700090910101A0910201B091030180932901A6
:1001800090932A01A0932B01B0932C018FE590E06E
:100190002FE530E0F90120812068FC012083000078
:1001A000DF91CF910895CF93DF93CDB7DEB781E88C
:1001B00090E0FC0110820000DF91CF910895CF9371
:1001C000DF93CDB7DEB781E0809328010000DF9197
:1001D000CF9108951F920F9200905F000F9211240B
:1001E00000905B000F922F933F934F935F936F9319
:1001F0007F938F939F93AF93BF93EF93FF93CF938F
:10020000DF93CDB7DEB78091290190912A01A091AB
:100210002B01B0912C010197A109B109809329010B
:1002200090932A01A0932B01B0932C018091290176
:1002300090912A01A0912B01B0912C01892B8A2B3E
:100240008B2B91F40E94DF008091000190910101BD
:10025000A0910201B09103018093290190932A019A
:10026000A0932B01B0932C010000DF91CF91FF915F
:10027000EF91BF91AF919F918F917F916F915F911E
:100280004F913F912F910F9000925B000F90009241
:100290005F000F901F901895CF93DF9300D01F92AF
:1002A000CDB7DEB789836A834B838B81882371F056
:1002B0008A81282F30E081E090E002C0880F991FEA
:1002C0002A95E2F7982F8981892B0EC08A81282FE1
:1002D00030E081E090E002C0880F991F2A95E2F794
:1002E000982F9095898189230F900F900F90DF911F
:1002F000CF910895CF93DF9300D0CDB7DEB7898338
:100300006A838A81282F30E081E090E002C0880F64
:10031000991F2A95E2F7982F898189230F900F90D2
:10032000DF91CF910895CF93DF93CDB7DEB72C97B0
:100330000FB6F894DEBF0FBECDBF6D837E838F8373
:10034000988729873A874B875C878D819E81AF810B
:10035000B88529853A854B855C85BC01CD010E9415
:100360001E06DC01CB0189839A83AB83BC83898120
:100370009A81AB81BC81892B8A2B8B2B29F48985AF
:100380009A85AB85BC8511C089859A85AB85BC856E
:100390008D839E83AF83B88789819A81AB81BC812D
:1003A00089879A87AB87BC87D0CFBC01CD012C96BB
:1003B0000FB6F894DEBF0FBECDBFDF91CF91089589
:1003C000CF93DF9300D01F92CDB7DEB789837B83B5
:1003D0006A8389818A3031F48A819B81BC018DE0F6
:1003E0000E94E00180EC90E0FC018081882F90E089
:1003F00080729927892BB1F386EC90E02981FC016A
:10040000208380E090E00F900F900F90DF91CF91CC
:100410000895CF93DF9300D0CDB7DEB79A83898359
:1004200089819A818130910589F0823091051CF48F
:10043000892B39F03CC082309105F1F0039791F19E
:1004400036C081E090E09A83898334C08091260190
:10045000883F41F0809126018C3F21F08091260158
:100460008E3F29F482E090E09A83898323C081E063
:1004700090E09A8389831EC080912601833E41F0DB
:1004800080912601873E21F0809126018F3E29F43C
:1004900081E090E09A8389830DC082E090E09A83A6
:1004A000898308C083E090E09A83898303C01A821D
:1004B0001982000089819A8182309105A1F08330F0
:1004C0009105D9F0019709F019C080913001882376
:1004D00039F4809126018695806F809326010EC0A5
:1004E000109230010BC080912601882F90E0880F78
:1004F000991F81608093260101C0000088E290E08E
:1005000020912501FC0120838BE290E020912601BF
:10051000FC01208389819A810F900F90DF91CF9108
:100520000895CF93DF9300D0CDB7DEB79A83898348
:1005300089819A81009719F0019721F008C01A82E9
:10054000198208C081E090E09A83898303C01A82EF
:100550001982000089819A81009721F0019709F49E
:1005600045C047C080912D01882309F441C0909176
:100570002F0180912D019817F0F488E290E02091EE
:100580002F01222F30E02B593E4FF9012081FC0131
:1005900020838BE290E020912F01222F30E0235A1C
:1005A0003E4FF9012081FC01208380912F018F5F54
:1005B00080932F011DC010922F0188E290E02091BE
:1005C0002F01222F30E02B593E4FF9012081FC01F1
:1005D00020838BE290E020912F01222F30E0235ADC
:1005E0003E4FF9012081FC01208302C0000001C0C0
:1005F000000089819A810F900F90DF91CF9108952B
:10060000CF93DF9300D0CDB7DEB79A8389838981FA
:100610009A81092E000CAA0BBB0B40E050E026E0AB
:1006200030E0841B950B2817390708F47DC08A5BDE
:100630009F4FFC010C94400681E090E09A838983EF
:1006400076C080E290E0FC018081882F90E0809568
:10065000909583709927019729F482E090E09A831E
:10066000898365C080E290E0FC018081882F90E062
:100670008095909583709927029729F485E090E002
:100680009A83898354C080E290E0FC018081882FA6
:1006900090E08095909583709927039729F486E0E0
:1006A00090E09A83898343C081E090E09A838983B4
:1006B0003EC083E090E09A83898339C080E290E075
:1006C000FC018081882F90E0809590958370992718
:1006D000019729F483E090E09A83898328C081E020
:1006E00090E09A83898323C080E290E0FC018081BE
:1006F000882F90E08095909583709927029729F430
:1007000084E090E09A83898312C085E090E09A8328
:1007100089830DC081E090E09A83898308C081E0DD
:1007200090E09A83898303C01A821982000089812C
:100730009A818330910509F4B6C0843091053CF468
:100740008130910509F4B1C0029769F0AFC08530DE
:10075000910509F454C0853091050CF461C00697E9
:1007600009F482C0A3C080912D01882F90E02091D0
:1007700025018B599E4FFC01208380912D01882FEC
:1007800090E020912601835A9E4FFC0120838091A6
:10079000120190911301FC018081823031F480912B
:1007A000120190911301FC01108280912D018F5F45
:1007B00080932D0180912D01823021F080912D01B7
:1007C000853029F480912E018F5F80932E018091D6
:1007D0002D01882F90E0865E9E4FFC0180818093E2
:1007E000250180912E01882F90E08E5D9E4FFC01A7
:1007F00080818093260181E08093300157C08091F1
:1008000012019091130123E0FC01208380911601D5
:100810009091170121E0FC0120831092250146C030
:100820008091120190911301FC01108280911601B8
:1008300090911701FC01108280912D01882F90E08A
:10084000865E9E4FFC0180818093250180912E0160
:10085000882F90E08E5D9E4FFC0180818093260161
:1008600081E08093300122C010922D0110922E0160
:100870008091120190911301FC01108280911A0164
:1008800080932501809122018093260188E290E0E7
:1008900020912501FC0120838BE290E0209126012C
:1008A000FC01208303C0000001C0000089819A81FF
:1008B0000F900F90DF91CF910895CF93DF9300D0E9
:1008C000CDB7DEB79A83898389819A81892B19F400
:1008D0001A82198203C01A821982000089819A81C2
:1008E000892B09F00DC088E290E020912501FC01E0
:1008F00020838BE290E020912601FC012083000000
:1009000089819A810F900F90DF91CF9108950F9375
:100910001F93CF93DF93CDB7DEB729970FB6F89427
:10092000DEBF0FBECDBF81E290E0FC01108282E20B
:1009300090E02FEFFC01208387E290E02FEFFC0195
:10094000208388E290E0FC0110828AE290E02FEFA1
:10095000FC0120838BE290E0FC01108284E090E0B7
:1009600098878F838FEF898789858093310182EC07
:1009700091E0A0E0B0E08093320190933301A09326
:100980003401B09335018091320190913301A091EF
:100990003401B09135018093360190933701A093D3
:1009A0003801B093390189E092E090933B01809344
:1009B0003A01898580933C018AE090E0A0E0B0E0B4
:1009C00080933D0190933E01A0933F01B09340017D
:1009D00080913D0190913E01A0913F01B091400175
:1009E0008093410190934201A0934301B09344014D
:1009F00080E093E090934601809345018985809340
:100A0000470181E090E0A0E0B0E08093480190933E
:100A10004901A0934A01B0934B0180914801909104
:100A20004901A0914A01B0914B0180934C019093F0
:100A30004D01A0934E01B0934F0181E992E0909354
:100A40005101809350018985809352018AE090E0A2
:100A5000A0E0B0E08093530190935401A09355011E
:100A6000B09356018091530190915401A09155018A
:100A7000B09156018093570190935801A09359016A
:100A8000B0935A018DE594E090935C0180935B01F3
:100A90008091120190911301FC0181819281A381C7
:100AA000B4818B839C83AD83BE8381E090E09A8385
:100AB000898321C089819A81880F991F8E5E9E4FFC
:100AC000FC0180819181FC0121813281438154812B
:100AD0008B819C81AD81BE81BC01CD010E949301BF
:100AE000DC01CB018B839C83AD83BE8389819A819A
:100AF00001969A83898329813A818F819885281765
:100B00003907C0F28B819C81AD81BE81BC01CD01D2
:100B10000E946E000E949C001A8219827FC0898107
:100B20009A81880F991F8E5E9E4FFC018081918172
:100B3000FC01258136814781508589819A81880F02
:100B4000991F8E5E9E4FFC0180819181FC01818105
:100B50009281A381B481281739074A075B07A9F559
:100B600089819A81880F991F8E5E9E4FFC010081BA
:100B7000118189819A81880F991F8E5E9E4FFC0199
:100B800080819181FC012185328589819A81880F3C
:100B9000991F8E5E9E4FFC0180819181FC018081B6
:100BA000082E000C990BF9010995F80180838981C1
:100BB0009A81880F991F8E5E9E4FFC0180819181E2
:100BC000FC01158216821782108689819A81880F0E
:100BD000991F8E5E9E4FFC016081718189819A818F
:100BE000880F991F8E5E9E4FFC0180819181FC01D0
:100BF00025813681478150858B819C81AD81BE8165
:100C0000820F931FA41FB51FFB0185839683A783C3
:100C1000B08789819A8101969A83898329813A8153
:100C20008F8198852817390708F479CF00008091C3
:100C300028018823E1F3109228016ECFA1E21A2E39
:100C4000AA1BBB1BFD010DC0AA1FBB1FEE1FFF1F70
:100C5000A217B307E407F50720F0A21BB30BE40BC0
:100C6000F50B661F771F881F991F1A9469F7609507
:100C70007095809590959B01AC01BD01CF010895C1
:100C8000EE0FFF1F0024001C0BBE0790F691E02D15
:060C90000994F894FFCF67
:100C9600010000000000000200000000E00100006A
:100CA600000031013C0147015201010204081020F5
:080CB600408003070F01030059
:00000001FF
