:100000000C945B000C947A000C947A000C947A00A7
:100010000C947A000C947A000C947A000C947A0078
:100020000C947A000C947A000C947A000C947A0068
:100030000C947A000C94F8000C947A000C947A00DA
:100040000C947A000C947A000C947A000C947A0048
:100050000C947A000C947A000C947A000C947A0038
:100060000C947A000C947A000C947A000C947A0028
:100070000C947A000C947A000C947A000C947A0018
:100080000C947A000C947A000C947A00F903FE0325
:1000900036043B047D04510467048204B3048704DE
:1000A0009D04C9040206F7040206B105A005020674
:1000B000D5050206020611241FBECFEFD0E4DEBF35
:1000C000CDBF11E0A0E0B1E0ECE9FFE000E00BBF44
:1000D00002C007900D92A833B107D9F721E0A8E339
:1000E000B1E001C01D92AF37B207E1F70E940A06E6
:1000F0000C94CC070C940000CF93DF9300D000D079
:10010000CDB7DEB769837A838B839C8389819A819B
:10011000AB81BC818093000190930101A093020107
:10012000B09303018091000190910101A09102011F
:10013000B09103018093390190933A01A0933B0160
:10014000B0933C0100000F900F900F900F90DF9143
:10015000CF910895CF93DF93CDB7DEB781E890E0DC
:100160002BE0FC01208388E890E02DE730E0FC01E3
:10017000318320838FE690E022E0FC01208384E835
:1001800090E0FC01118210828091000190910101A8
:10019000A0910201B09103018093390190933A013B
:1001A000A0933B01B0933C018FE590E02FE530E058
:1001B000F90120812068FC0120830000DF91CF91AC
:1001C0000895CF93DF93CDB7DEB781E890E0FC01CF
:1001D00010820000DF91CF910895CF93DF93CDB7C8
:1001E000DEB781E0809338010000DF91CF91089560
:1001F0001F920F9200905F000F92112400905B00FD
:100200000F922F933F934F935F936F937F938F93AF
:100210009F93AF93BF93EF93FF93CF93DF93CDB7AC
:10022000DEB78091390190913A01A0913B01B091E4
:100230003C010197A109B1098093390190933A01DA
:10024000A0933B01B0933C018091390190913A0118
:10025000A0913B01B0913C01892B8A2B8B2B91F40F
:100260000E94ED008091000190910101A091020196
:10027000B09103018093390190933A01A0933B011F
:10028000B0933C010000DF91CF91FF91EF91BF91BE
:10029000AF919F918F917F916F915F914F913F911E
:1002A0002F910F9000925B000F9000925F000F90D3
:1002B0001F901895CF93DF9300D01F92CDB7DEB774
:1002C00089836A834B838B81882371F08A81282FED
:1002D00030E081E090E002C0880F991F2A95E2F794
:1002E000982F8981892B0EC08A81282F30E081E0E8
:1002F00090E002C0880F991F2A95E2F7982F9095F9
:10030000898189230F900F900F90DF91CF910895ED
:10031000CF93DF9300D0CDB7DEB789836A838A811C
:10032000282F30E081E090E002C0880F991F2A95C5
:10033000E2F7982F898189230F900F90DF91CF9159
:100340000895CF93DF93CDB7DEB72C970FB6F8940F
:10035000DEBF0FBECDBF6D837E838F8398872987D5
:100360003A874B875C878D819E81AF81B8852985CF
:100370003A854B855C85BC01CD010E94A107DC015B
:10038000CB0189839A83AB83BC8389819A81AB81BA
:10039000BC81892B8A2B8B2B29F489859A85AB8587
:1003A000BC8511C089859A85AB85BC858D839E836C
:1003B000AF83B88789819A81AB81BC8189879A870D
:1003C000AB87BC87D0CFBC01CD012C960FB6F8947B
:1003D000DEBF0FBECDBFDF91CF910895CF93DF93E6
:1003E00000D01F92CDB7DEB789837B836A83898172
:1003F0008A3031F48A819B81BC018DE00E94EE013C
:1004000080EC90E0FC018081882F90E08072992739
:10041000892BB1F386EC90E02981FC01208380E0F8
:1004200090E00F900F900F90DF91CF910895CF93B0
:10043000DF9300D0CDB7DEB79A83898389819A8113
:100440008130910589F0823091051CF4892B39F0B7
:100450003CC082309105F1F0039791F136C081E004
:1004600090E09A83898334C080913601883F41F0BF
:10047000809136018C3F21F0809136018E3F29F426
:1004800082E090E09A83898323C081E090E09A83A0
:1004900089831EC080913601833E41F080913601F0
:1004A000873E21F0809136018F3E29F481E090E073
:1004B0009A8389830DC082E090E09A83898308C083
:1004C00083E090E09A83898303C01A821982000036
:1004D00089819A8182309105A1F083309105D9F00C
:1004E000019709F019C080914001882339F4809167
:1004F00036018695806F809336010EC010924001C0
:100500000BC080913601882F90E0880F991F816081
:100510008093360101C0000088E290E0209135010F
:10052000FC0120838BE290E020913601FC012083C6
:1005300089819A810F900F90DF91CF910895CF9389
:10054000DF9300D0CDB7DEB79A83898389819A8102
:100550008130910579F0823091051CF4892B39F0B6
:1005600018C08230910581F0039749F012C01A82B9
:10057000198212C081E090E09A8389830DC083E0E4
:1005800090E09A83898308C082E090E09A8389830F
:1005900003C01A821982000089819A8181309105F5
:1005A00009F4CCC0823091051CF4892B49F0C9C0F4
:1005B0008230910509F448C0039709F482C0C1C094
:1005C00080913D01882309F4BBC090913F01809147
:1005D0003D019817F0F488E290E020913F01222F2E
:1005E00030E029583E4FF9012081FC0120838BE245
:1005F00090E020913F01222F30E021593E4FF90138
:100600002081FC01208380913F018F5F80933F0117
:1006100097C010923F0188E290E020913F01222F85
:1006200030E029583E4FF9012081FC0120838BE204
:1006300090E020913F01222F30E021593E4FF901F7
:100640002081FC0120837CC0809142018430F0F441
:1006500088E290E020914201222F30E02B5D3E4F56
:10066000F9012081FC0120838BE290E0209142017E
:10067000222F30E0275D3E4FF9012081FC012083CD
:10068000809142018F5F809342015BC010924201D2
:1006900088E290E020914201222F30E02B5D3E4F16
:1006A000F9012081FC0120838BE290E0209142013E
:1006B000222F30E0275D3E4FF9012081FC0120838D
:1006C00040C0809142018430F0F488E290E02091B3
:1006D0004201222F30E0235D3E4FF9012081FC01D1
:1006E00020838BE290E020914201222F30E02F5CAA
:1006F0003E4FF9012081FC012083809142018F5FF0
:10070000809342011EC01092420188E290E0209145
:100710004201222F30E0235D3E4FF9012081FC0190
:1007200020838BE290E020914201222F30E02F5C69
:100730003E4FF9012081FC01208303C0000001C06D
:10074000000089819A810F900F90DF91CF910895D9
:10075000CF93DF9300D0CDB7DEB79A8389838981A9
:100760009A81009719F0019721F008C01A82198226
:1007700008C081E090E09A83898303C01A821982BD
:10078000000089819A81009719F0019771F00EC0DD
:1007900088E290E020913501FC0120838BE290E01B
:1007A00020913601FC01208301C0000089819A81DB
:1007B0000F900F90DF91CF910895CF93DF9300D0EA
:1007C000CDB7DEB79A83898389819A81092E000C7F
:1007D000AA0BBB0B40E050E02BE030E0841B950BF4
:1007E0002817390708F4EBC08A5B9F4FFC010C9473
:1007F000C30781E090E09A838983E4C080E290E0BF
:10080000FC018081882F90E08095909583709927D6
:10081000019729F482E090E09A838983D3C080E233
:1008200090E0FC018081882F90E080959095837006
:100830009927029729F485E090E09A838983C2C0C2
:1008400080E290E0FC018081882F90E08095909577
:1008500083709927039729F487E090E09A8389832E
:10086000B1C081E090E09A838983ACC083E090E0DE
:100870009A838983A7C080E290E0FC018081882F61
:1008800090E08095909583709927019729F483E0F3
:1008900090E09A83898396C081E090E09A8389836F
:1008A00091C080E290E0FC018081882F90E08095EB
:1008B000909583709927029729F486E090E09A83B7
:1008C000898380C085E090E09A8389837BC080E241
:1008D00090E0FC018081882F90E080959095837056
:1008E0009927029729F484E090E09A8389836AC06B
:1008F00086E090E09A83898365C081E090E09A83E6
:10090000898360C081E090E09A8389835BC080E244
:1009100090E0FC018081882F90E080959095837015
:100920009927019729F489E090E09A8389834AC046
:100930008AE090E09A83898345C080E290E0FC01E0
:100940008081882F90E080959095837099270197FA
:1009500029F487E090E09A83898334C08AE090E0AC
:100960009A8389832FC080E290E0FC018081882FE8
:1009700090E08095909583709927019729F488E0FD
:1009800090E09A8389831EC08BE090E09A838983EC
:1009900019C080E290E0FC018081882F90E0809572
:1009A000909583709927019729F487E090E09A83C6
:1009B000898308C08BE090E09A83898303C01A8200
:1009C0001982000089819A81092E000CAA0BBB0BA9
:1009D00041E050E028E030E0841B950B28173907F0
:1009E00008F410C18E5A9F4FFC010C94C3078091EC
:1009F0003D01882F90E02091350189589E4FFC01E0
:100A0000208380913D01882359F480913D01882FF6
:100A100090E02091360181599E4FFC01208358C0FF
:100A200080913D01882F90E0019781599E4FFC01F4
:100A3000908180913601892B809341018091410101
:100A4000882F90E08F7199274F97D1F489E090E03B
:100A50009A838983809112019091130123E0FC0114
:100A60002083809116019091170123E0FC012083DF
:100A7000809118019091190121E0FC012083C3C0ED
:100A800080913D01882F90E02091410181599E4F36
:100A9000FC01208380913D018730D1F488E090E013
:100AA0009A838983809112019091130123E0FC01C4
:100AB0002083809116019091170122E0FC01208390
:100AC000809118019091190121E0FC0120839BC0C5
:100AD0008091120190911301FC018081823031F4E8
:100AE0008091120190911301FC01108280913D01CF
:100AF0008F5F80933D0180913D01823021F0809194
:100B00003D01853029F480913E018F5F80933E0145
:100B100080913D01882F90E0865E9E4FFC01808190
:100B20008093350180913E01882F90E08E5D9E4F2D
:100B3000FC0180818093360181E08093400163C095
:100B4000809112019091130123E0FC012083809198
:100B500016019091170121E0FC01208310923501CC
:100B600052C08091120190911301FC01108280917A
:100B7000160190911701FC01108280913D01882F90
:100B800090E0865E9E4FFC018081809335018091CC
:100B90003E01882F90E08E5D9E4FFC018081809306
:100BA000360181E0809340012EC010923D011092E9
:100BB0003E01109242018091120190911301FC01BB
:100BC00010828091160190911701FC011082809192
:100BD000180190911901FC01108280911A018093F3
:100BE0003501809122018093360188E290E02091C6
:100BF0003501FC0120838BE290E020913601FC015D
:100C0000208301C0000089819A810F900F90DF91AD
:100C1000CF9108950F931F93CF93DF93CDB7DEB796
:100C200029970FB6F894DEBF0FBECDBF81E290E0EA
:100C3000FC01108282E290E02FEFFC01208387E22A
:100C400090E02FEFFC01208388E290E0FC0110820D
:100C50008AE290E02FEFFC0120838BE290E0FC0120
:100C6000108284E090E098878F838FEF8987898551
:100C70008093430182EC91E0A0E0B0E080934401D6
:100C800090934501A0934601B093470180914401A0
:100C900090914501A0914601B09147018093480190
:100CA00090934901A0934A01B0934B0187E192E0F0
:100CB00090934D0180934C01898580934E0182E38E
:100CC00090E0A0E0B0E080934F0190935001A0939A
:100CD0005101B093520180914F0190915001A09128
:100CE0005101B09152018093530190935401A0930C
:100CF0005501B09356018DED93E090935801809388
:100D0000570189858093590181E090E0A0E0B0E02F
:100D100080935A0190935B01A0935C01B0935D01B5
:100D200080915A0190915B01A0915C01B0915D01AD
:100D300080935E0190935F01A0936001B093610185
:100D40008FE992E09093630180936201898580939B
:100D500064018AE090E0A0E0B0E0809365019093A8
:100D60006601A0936701B09368018091650190913D
:100D70006601A0916701B091680180936901909329
:100D80006A01A0936B01B0936C0188EA93E09093A1
:100D90006E0180936D018091120190911301FC010D
:100DA00081819281A381B4818B839C83AD83BE8337
:100DB00081E090E09A83898321C089819A81880F9C
:100DC000991F8E5E9E4FFC0180819181FC012181E3
:100DD0003281438154818B819C81AD81BE81BC0174
:100DE000CD010E94A101DC01CB018B839C83AD83EB
:100DF000BE8389819A8101969A83898329813A8168
:100E00008F81988528173907C0F28B819C81AD812D
:100E1000BE81BC01CD010E947C000E94AA001A8202
:100E200019827FC089819A81880F991F8E5E9E4F9B
:100E3000FC0180819181FC012581368147815085AB
:100E400089819A81880F991F8E5E9E4FFC01808157
:100E50009181FC0181819281A381B4812817390796
:100E60004A075B07A9F589819A81880F991F8E5ED1
:100E70009E4FFC010081118189819A81880F991F01
:100E80008E5E9E4FFC0180819181FC01218532851F
:100E900089819A81880F991F8E5E9E4FFC01808107
:100EA0009181FC018081082E000C990BF9010995B4
:100EB000F801808389819A81880F991F8E5E9E4FE9
:100EC000FC0180819181FC011582168217821086B7
:100ED00089819A81880F991F8E5E9E4FFC016081E7
:100EE000718189819A81880F991F8E5E9E4FFC01C6
:100EF00080819181FC0125813681478150858B81DC
:100F00009C81AD81BE81820F931FA41FB51FFB0181
:100F100085839683A783B08789819A8101969A8376
:100F2000898329813A818F8198852817390708F4A8
:100F300079CF0000809138018823E1F310923801C5
:100F40006ECFA1E21A2EAA1BBB1BFD010DC0AA1F6A
:100F5000BB1FEE1FFF1FA217B307E407F50720F022
:100F6000A21BB30BE40BF50B661F771F881F991F9D
:100F70001A9469F760957095809590959B01AC01E6
:100F8000BD01CF010895EE0FFF1F0024001C0BBE12
:0C0F90000790F691E02D0994F894FFCF33
:100F9C00010000000000000200000000EE01000053
:100FAC00000043014E0159016401010204081020A4
:100FBC00408003070F201008041515EE00201004C4
:080FCC0002151500EE010300FF
:00000001FF
