:100000000C945B000C947A000C947A000C947A00A7
:100010000C947A000C947A000C947A000C947A0078
:100020000C947A000C947A000C947A000C947A0068
:100030000C947A000C94F8000C947A000C947A00DA
:100040000C947A000C947A000C947A000C947A0048
:100050000C947A000C947A000C947A000C947A0038
:100060000C947A000C947A000C947A000C947A0028
:100070000C947A000C947A000C947A000C947A0018
:100080000C947A000C947A000C947A00F903FE0325
:1000900036043B047D04510467048204BF048704D2
:1000A0009D04D5047A060F057A06F905E8057A0657
:1000B0001D067A067A0611241FBECFEFD0E4DEBFFC
:1000C000CDBF11E0A0E0B1E0ECE8F0E100E00BBF53
:1000D00002C007900D92A835B107D9F721E0A8E535
:1000E000B1E001C01D92AF39B207E1F70E9482066C
:1000F0000C9444080C940000CF93DF9300D000D000
:10010000CDB7DEB769837A838B839C8389819A819B
:10011000AB81BC818093000190930101A093020107
:10012000B09303018091000190910101A09102011F
:10013000B09103018093590190935A01A0935B0100
:10014000B0935C0100000F900F900F900F90DF9123
:10015000CF910895CF93DF93CDB7DEB781E890E0DC
:100160002BE0FC01208388E890E02DE730E0FC01E3
:10017000318320838FE690E022E0FC01208384E835
:1001800090E0FC01118210828091000190910101A8
:10019000A0910201B09103018093590190935A01FB
:1001A000A0935B01B0935C018FE590E02FE530E018
:1001B000F90120812068FC0120830000DF91CF91AC
:1001C0000895CF93DF93CDB7DEB781E890E0FC01CF
:1001D00010820000DF91CF910895CF93DF93CDB7C8
:1001E000DEB781E0809358010000DF91CF91089540
:1001F0001F920F9200905F000F92112400905B00FD
:100200000F922F933F934F935F936F937F938F93AF
:100210009F93AF93BF93EF93FF93CF93DF93CDB7AC
:10022000DEB78091590190915A01A0915B01B09184
:100230005C010197A109B1098093590190935A017A
:10024000A0935B01B0935C018091590190915A0198
:10025000A0915B01B0915C01892B8A2B8B2B91F4CF
:100260000E94ED008091000190910101A091020196
:10027000B09103018093590190935A01A0935B01BF
:10028000B0935C010000DF91CF91FF91EF91BF919E
:10029000AF919F918F917F916F915F914F913F911E
:1002A0002F910F9000925B000F9000925F000F90D3
:1002B0001F901895CF93DF9300D01F92CDB7DEB774
:1002C00089836A834B838B81882371F08A81282FED
:1002D00030E081E090E002C0880F991F2A95E2F794
:1002E000982F8981892B0EC08A81282F30E081E0E8
:1002F00090E002C0880F991F2A95E2F7982F9095F9
:10030000898189230F900F900F90DF91CF910895ED
:10031000CF93DF9300D0CDB7DEB789836A838A811C
:10032000282F30E081E090E002C0880F991F2A95C5
:10033000E2F7982F898189230F900F90DF91CF9159
:100340000895CF93DF93CDB7DEB72C970FB6F8940F
:10035000DEBF0FBECDBF6D837E838F8398872987D5
:100360003A874B875C878D819E81AF81B8852985CF
:100370003A854B855C85BC01CD010E941908DC01E2
:10038000CB0189839A83AB83BC8389819A81AB81BA
:10039000BC81892B8A2B8B2B29F489859A85AB8587
:1003A000BC8511C089859A85AB85BC858D839E836C
:1003B000AF83B88789819A81AB81BC8189879A870D
:1003C000AB87BC87D0CFBC01CD012C960FB6F8947B
:1003D000DEBF0FBECDBFDF91CF910895CF93DF93E6
:1003E00000D01F92CDB7DEB789837B836A83898172
:1003F0008A3031F48A819B81BC018DE00E94EE013C
:1004000080EC90E0FC018081882F90E08072992739
:10041000892BB1F386EC90E02981FC01208380E0F8
:1004200090E00F900F900F90DF91CF910895CF93B0
:10043000DF9300D0CDB7DEB79A83898389819A8113
:100440008130910589F0823091051CF4892B39F0B7
:100450003CC082309105F1F0039791F136C081E004
:1004600090E09A83898334C080913601883F41F0BF
:10047000809136018C3F21F0809136018E3F29F426
:1004800082E090E09A83898323C081E090E09A83A0
:1004900089831EC080913601833E41F080913601F0
:1004A000873E21F0809136018F3E29F481E090E073
:1004B0009A8389830DC082E090E09A83898308C083
:1004C00083E090E09A83898303C01A821982000036
:1004D00089819A8182309105A1F083309105D9F00C
:1004E000019709F019C080916001882339F4809147
:1004F00036018695806F809336010EC010926001A0
:100500000BC080913601882F90E0880F991F816081
:100510008093360101C0000088E290E0209135010F
:10052000FC0120838BE290E020913601FC012083C6
:1005300089819A810F900F90DF91CF910895CF9389
:10054000DF9300D0CDB7DEB79A83898389819A8102
:100550008130910579F0823091051CF4892B39F0B6
:1005600018C08230910581F0039749F012C01A82B9
:10057000198212C081E090E09A8389830DC083E0E4
:1005800090E09A83898308C082E090E09A8389830F
:1005900003C01A821982000089819A8181309105F5
:1005A00009F4CCC0823091051CF4892B49F0C9C0F4
:1005B0008230910509F448C0039709F482C0C1C094
:1005C00080915D01882309F4BBC090915F01809107
:1005D0005D019817F0F488E290E020915F01222FEE
:1005E00030E029563E4FF9012081FC0120838BE247
:1005F00090E020915F01222F30E021573E4FF9011A
:100600002081FC01208380915F018F5F80935F01D7
:1006100097C010925F0188E290E020915F01222F45
:1006200030E029563E4FF9012081FC0120838BE206
:1006300090E020915F01222F30E021573E4FF901D9
:100640002081FC0120837CC0809162018430F0F421
:1006500088E290E020916201222F30E02B5D3E4F36
:10066000F9012081FC0120838BE290E0209162015E
:10067000222F30E0275D3E4FF9012081FC012083CD
:10068000809162018F5F809362015BC01092620172
:1006900088E290E020916201222F30E02B5D3E4FF6
:1006A000F9012081FC0120838BE290E0209162011E
:1006B000222F30E0275D3E4FF9012081FC0120838D
:1006C00040C0809162018430F0F488E290E0209193
:1006D0006201222F30E0235D3E4FF9012081FC01B1
:1006E00020838BE290E020916201222F30E02F5C8A
:1006F0003E4FF9012081FC012083809162018F5FD0
:10070000809362011EC01092620188E290E0209105
:100710006201222F30E0235D3E4FF9012081FC0170
:1007200020838BE290E020916201222F30E02F5C49
:100730003E4FF9012081FC01208303C0000001C06D
:10074000000089819A810F900F90DF91CF910895D9
:10075000CF93DF9300D0CDB7DEB79A8389838981A9
:100760009A81009719F0019721F008C01A82198226
:1007700008C081E090E09A83898303C01A821982BD
:10078000000089819A81009719F0019771F00EC0DD
:1007900088E290E020913501FC0120838BE290E01B
:1007A00020913601FC01208301C0000089819A81DB
:1007B0000F900F90DF91CF910895CF93DF9300D0EA
:1007C000CDB7DEB79A83898389819A81092E000C7F
:1007D000AA0BBB0B40E050E02BE030E0841B950BF4
:1007E0002817390708F403C18A5B9F4FFC010C945A
:1007F0003B0881E090E09A838983FCC080E290E02E
:10080000FC018081882F90E08095909583709927D6
:10081000019729F482E090E09A838983EBC080E21B
:1008200090E0FC018081882F90E080959095837006
:100830009927029729F485E090E09A838983DAC0AA
:1008400080E290E0FC018081882F90E08095909577
:1008500083709927039729F487E090E09A8389832E
:10086000C9C081E090E09A838983C4C083E090E0AE
:100870009A838983BFC080E290E0FC018081882F49
:1008800090E08095909583709927019729F483E0F3
:1008900090E09A838983AEC081E090E09A83898357
:1008A000A9C080E290E0FC018081882F90E08095D3
:1008B000909583709927029729F486E090E09A83B7
:1008C000898398C085E090E09A83898393C080E211
:1008D00090E0FC018081882F90E080959095837056
:1008E0009927029729F484E090E09A83898382C053
:1008F00086E090E09A8389837DC081E090E09A83CE
:10090000898378C081E090E09A83898373C080E214
:1009100090E0FC018081882F90E080959095837015
:100920009927019729F489E090E09A83898362C02E
:100930008AE090E09A8389835DC080E290E0FC01C8
:100940008081882F90E080959095837099270197FA
:1009500061F080E290E0FC018081882F90E080953A
:10096000909583709927039729F487E090E09A8304
:10097000898340C08AE090E09A8389833BC080E20B
:1009800090E0FC018081882F90E0809590958370A5
:100990009927019729F488E090E09A8389832AC0F7
:1009A0008BE090E09A83898325C080E290E0FC018F
:1009B0008081882F90E0809590958370992701978A
:1009C00061F080E290E0FC018081882F90E08095CA
:1009D000909583709927039729F487E090E09A8394
:1009E000898308C08BE090E09A83898303C01A82D0
:1009F0001982000089819A81092E000CAA0BBB0B79
:100A000041E050E028E030E0841B950B28173907BF
:100A100008F470C18E5A9F4FFC010C943B088091E2
:100A20005D01882F90E02091350189569E4FFC0191
:100A3000208380915D01882359F480915D01882F86
:100A400090E02091360181579E4FFC01208358C0D1
:100A500080915D01882F90E0019781579E4FFC01A6
:100A6000908180913601892B809361018091610191
:100A7000882F90E08F7199274F97D1F489E090E00B
:100A80009A838983809112019091130123E0FC01E4
:100A90002083809116019091170123E0FC012083AF
:100AA000809118019091190121E0FC01208323C15C
:100AB00080915D01882F90E02091610181579E4FC8
:100AC000FC01208380915D018730D1F488E090E0C3
:100AD0009A838983809112019091130123E0FC0194
:100AE0002083809116019091170122E0FC01208360
:100AF000809118019091190121E0FC012083FBC035
:100B00008091120190911301FC018081823031F4B7
:100B10008091120190911301FC01108280915D017E
:100B20008F5F80935D0120911201309113018091BC
:100B30005D01882F90E0880F991F880F991F895CAD
:100B40009E4FFC0180819181A281B381F901818353
:100B50009283A383B4832091120130911301809179
:100B60005D01882F90E0880F991F880F991F895C7D
:100B70009E4FFC0180819181A281B381F90185831F
:100B80009683A783B08780915D01823021F08091A8
:100B90005D01853029F480915E018F5F80935E0155
:100BA00080915D01882F90E0865E9E4FFC018081E0
:100BB0008093350180915E01882F90E08E5D9E4F7D
:100BC000FC0180818093360181E08093600193C0B5
:100BD000809112019091130123E0FC012083809108
:100BE00016019091170121E0FC012083109235013C
:100BF00082C08091120190911301FC0110828091BA
:100C0000160190911701FC01108280915D01882FDF
:100C100090E0865E9E4FFC0180818093350180913B
:100C20005E01882F90E08E5D9E4FFC018081809355
:100C3000360181E0809360015EC010925D011092E8
:100C40005E01109262018091120190911301FC01EA
:100C50001082209112013091130180915D01882F43
:100C600090E0880F991F880F991F895C9E4FFC01A7
:100C700080819181A281B381F90181839283A383D1
:100C8000B483209112013091130180915D01882F6E
:100C900090E0880F991F880F991F895C9E4FFC0177
:100CA00080819181A281B381F90185839683A78395
:100CB000B0878091160190911701FC0110828091FC
:100CC000180190911901FC01108280911A01809302
:100CD0003501809122018093360188E290E02091D5
:100CE0003501FC0120838BE290E020913601FC016C
:100CF000208301C0000089819A810F900F90DF91BD
:100D0000CF9108950F931F93CF93DF93CDB7DEB7A5
:100D100029970FB6F894DEBF0FBECDBF81E290E0F9
:100D2000FC01108282E290E02FEFFC01208387E239
:100D300090E02FEFFC01208388E290E0FC0110821C
:100D40008AE290E02FEFFC0120838BE290E0FC012F
:100D5000108284E090E098878F838FEF8987898560
:100D60008093630182EC91E0A0E0B0E080936401A5
:100D700090936501A0936601B0936701809164012F
:100D800090916501A0916601B0916701809368011F
:100D900090936901A0936A01B0936B0187E192E09F
:100DA00090936D0180936C01898580936E0182E33D
:100DB00090E0A0E0B0E080936F0190937001A09369
:100DC0007101B093720180916F0190917001A091B7
:100DD0007101B09172018093730190937401A0939B
:100DE0007501B09376018DED93E090937801809337
:100DF000770189858093790181E090E0A0E0B0E0FF
:100E000080937A0190937B01A0937C01B0937D0144
:100E100080917A0190917B01A0917C01B0917D013C
:100E200080937E0190937F01A0938001B093810114
:100E30008FE992E09093830180938201898580936A
:100E400084018AE090E0A0E0B0E080938501909377
:100E50008601A0938701B0938801809185019091CC
:100E60008601A0918701B0918801809389019093B8
:100E70008A01A0938B01B0938C0188EA93E0909350
:100E80008E0180938D018091120190911301FC01DC
:100E900081819281A381B4818B839C83AD83BE8346
:100EA00081E090E09A83898321C089819A81880FAB
:100EB000991F8E5E9E4FFC0180819181FC012181F2
:100EC0003281438154818B819C81AD81BE81BC0183
:100ED000CD010E94A101DC01CB018B839C83AD83FA
:100EE000BE8389819A8101969A83898329813A8177
:100EF0008F81988528173907C0F28B819C81AD813D
:100F0000BE81BC01CD010E947C000E94AA001A8211
:100F100019827FC089819A81880F991F8E5E9E4FAA
:100F2000FC0180819181FC012581368147815085BA
:100F300089819A81880F991F8E5E9E4FFC01808166
:100F40009181FC0181819281A381B48128173907A5
:100F50004A075B07A9F589819A81880F991F8E5EE0
:100F60009E4FFC010081118189819A81880F991F10
:100F70008E5E9E4FFC0180819181FC01218532852E
:100F800089819A81880F991F8E5E9E4FFC01808116
:100F90009181FC018081082E000C990BF9010995C3
:100FA000F801808389819A81880F991F8E5E9E4FF8
:100FB000FC0180819181FC011582168217821086C6
:100FC00089819A81880F991F8E5E9E4FFC016081F6
:100FD000718189819A81880F991F8E5E9E4FFC01D5
:100FE00080819181FC0125813681478150858B81EB
:100FF0009C81AD81BE81820F931FA41FB51FFB0191
:1010000085839683A783B08789819A8101969A8385
:10101000898329813A818F8198852817390708F4B7
:1010200079CF0000809158018823E1F31092580194
:101030006ECFA1E21A2EAA1BBB1BFD010DC0AA1F79
:10104000BB1FEE1FFF1FA217B307E407F50720F031
:10105000A21BB30BE40BF50B661F771F881F991FAC
:101060001A9469F760957095809590959B01AC01F5
:10107000BD01CF010895EE0FFF1F0024001C0BBE21
:0C1080000790F691E02D0994F894FFCF42
:10108C00010000000000000200000000EE01000062
:10109C00000063016E017901840101020408102033
:1010AC00408003070F201008041515EE00201004D3
:1010BC0002151500EE0103C2010000900100005E54
:1010CC000100002C010000FA000000C8000000968E
:0810DC000000006400000000A8
:00000001FF
