:100000000C944D000C946C000C946C000C946C00DF
:100010000C946C000C946C000C946C000C946C00B0
:100020000C946C000C946C000C946C000C946C00A0
:100030000C946C000C94EA000C946C000C946C0012
:100040000C946C000C946C000C946C000C946C0080
:100050000C946C000C946C000C946C000C946C0070
:100060000C946C000C946C000C946C000C946C0060
:100070000C946C000C946C000C946C000C946C0050
:100080000C946C000C946C000C946C00AD02B202E9
:10009000EA02EF021B030503200311241FBECFEF6A
:1000A000D0E4DEBFCDBF11E0A0E0B1E0EEE8FAE0C1
:1000B00000E00BBF02C007900D92A432B107D9F740
:1000C00021E0A4E2B1E001C01D92A234B207E1F741
:1000D0000E94CD030C9445050C940000CF93DF9350
:1000E00000D000D0CDB7DEB769837A838B839C8341
:1000F00089819A81AB81BC81809300019093010139
:10010000A0930201B093030180910001909101013D
:10011000A0910201B09103018093250190932601E3
:10012000A0932701B093280100000F900F900F902B
:100130000F90DF91CF910895CF93DF93CDB7DEB7C6
:1001400081E890E02BE0FC01208388E890E02DE737
:1001500030E0FC01318320838FE690E022E0FC0157
:10016000208384E890E0FC011182108280910001DC
:1001700090910101A0910201B091030180932501AA
:1001800090932601A0932701B09328018FE590E07A
:100190002FE530E0F90120812068FC012083000078
:1001A000DF91CF910895CF93DF93CDB7DEB781E88C
:1001B00090E0FC0110820000DF91CF910895CF9371
:1001C000DF93CDB7DEB781E0809324010000DF919B
:1001D000CF9108951F920F9200905F000F9211240B
:1001E00000905B000F922F933F934F935F936F9319
:1001F0007F938F939F93AF93BF93EF93FF93CF938F
:10020000DF93CDB7DEB78091250190912601A091B3
:100210002701B09128010197A109B1098093250117
:1002200090932601A0932701B09328018091250186
:1002300090912601A0912701B0912801892B8A2B4A
:100240008B2B91F40E94DF008091000190910101BD
:10025000A0910201B09103018093250190932601A2
:10026000A0932701B09328010000DF91CF91FF9167
:10027000EF91BF91AF919F918F917F916F915F911E
:100280004F913F912F910F9000925B000F90009241
:100290005F000F901F901895CF93DF9300D01F92AF
:1002A000CDB7DEB789836A834B838B81882371F056
:1002B0008A81282F30E081E090E002C0880F991FEA
:1002C0002A95E2F7982F8981892B0EC08A81282FE1
:1002D00030E081E090E002C0880F991F2A95E2F794
:1002E000982F9095898189230F900F900F90DF911F
:1002F000CF910895CF93DF9300D0CDB7DEB7898338
:100300006A838A81282F30E081E090E002C0880F64
:10031000991F2A95E2F7982F898189230F900F90D2
:10032000DF91CF910895CF93DF93CDB7DEB72C97B0
:100330000FB6F894DEBF0FBECDBF6D837E838F8373
:10034000988729873A874B875C878D819E81AF810B
:10035000B88529853A854B855C85BC01CD010E9415
:100360001A05DC01CB0189839A83AB83BC83898125
:100370009A81AB81BC81892B8A2B8B2B29F48985AF
:100380009A85AB85BC8511C089859A85AB85BC856E
:100390008D839E83AF83B88789819A81AB81BC812D
:1003A00089879A87AB87BC87D0CFBC01CD012C96BB
:1003B0000FB6F894DEBF0FBECDBFDF91CF91089589
:1003C000CF93DF9300D01F92CDB7DEB789837B83B5
:1003D0006A8389818A3031F48A819B81BC018DE0F6
:1003E0000E94E00180EC90E0FC018081882F90E089
:1003F00080729927892BB1F386EC90E02981FC016A
:10040000208380E090E00F900F900F90DF91CF91CC
:100410000895CF93DF9300D0CDB7DEB79A83898359
:1004200089819A818130910589F0823091051CF48F
:10043000892B39F03CC082309105F1F0039791F19E
:1004400036C081E090E09A83898334C08091220194
:10045000883F41F0809122018C3F21F08091220160
:100460008E3F29F482E090E09A83898323C081E063
:1004700090E09A8389831EC080912201833E41F0DF
:1004800080912201873E21F0809122018F3E29F444
:1004900081E090E09A8389830DC082E090E09A83A6
:1004A000898308C083E090E09A83898303C01A821D
:1004B0001982000089819A8182309105A1F08330F0
:1004C0009105D9F0019709F019C080912B0188237B
:1004D00039F4809122018695806F809322010EC0AD
:1004E00010922B010BC080912201882F90E0880F81
:1004F000991F81608093220101C0000088E290E092
:1005000020912101FC0120838BE290E020912201C7
:10051000FC01208389819A810F900F90DF91CF9108
:100520000895CF93DF9300D0CDB7DEB79A83898348
:1005300089819A81092E000CAA0BBB0B40E050E088
:1005400026E030E0841B950B2817390708F47DC09E
:100550008A5B9F4FFC010C943C0581E090E09A83FC
:10056000898376C080E290E0FC018081882F90E052
:100570008095909583709927019729F482E090E007
:100580009A83898365C080E290E0FC018081882F96
:1005900090E08095909583709927029729F485E0E3
:1005A00090E09A83898354C080E290E0FC018081CE
:1005B000882F90E08095909583709927039729F470
:1005C00086E090E09A83898343C081E090E09A833B
:1005D00089833EC083E090E09A83898339C080E2BA
:1005E00090E0FC018081882F90E080959095837049
:1005F0009927019729F483E090E09A83898328C0A2
:1006000081E090E09A83898323C080E290E0FC013E
:100610008081882F90E0809590958370992702972C
:1006200029F484E090E09A83898312C085E090E009
:100630009A8389830DC081E090E09A83898308C002
:1006400081E090E09A83898303C01A8219820000B6
:1006500089819A818330910509F495C08430910590
:100660003CF48130910509F490C0029769F08EC086
:100670008530910509F440C0853091050CF446C0E1
:10068000069709F461C082C0809112019091130114
:10069000FC018081823031F480911201909113012C
:1006A000FC011082809129018F5F80932901809144
:1006B0002901823021F080912901853029F480912F
:1006C0002A018F5F80932A0180912901882F90E071
:1006D0008A5E9E4FFC0180818093210180912A01D6
:1006E000882F90E0825E9E4FFC01808180932201E2
:1006F00081E080932B014AC08091120190911301F7
:1007000023E0FC0120831092210140C0809112015E
:1007100090911301FC01108280912901882F90E0B3
:100720008A5E9E4FFC0180818093210180912A0185
:10073000882F90E0825E9E4FFC0180818093220191
:1007400081E080932B0122C01092290110922A018E
:100750008091120190911301FC0110828091160189
:100760008093210180911E018093220188E290E014
:1007700020912101FC0120838BE290E02091220155
:10078000FC01208303C0000001C0000089819A8120
:100790000F900F90DF91CF9108950F931F93CF93F8
:1007A000DF93CDB7DEB729970FB6F894DEBF0FBE43
:1007B000CDBF81E290E0FC01108282E290E02FEF59
:1007C000FC01208387E290E02FEFFC01208388E288
:1007D00090E0FC0110828AE290E02FEFFC01208380
:1007E0008BE290E0FC01108282E090E098878F839A
:1007F0008FEF8987898580932C0182EC91E0A0E0BE
:10080000B0E080932D0190932E01A0932F01B0931F
:10081000300180912D0190912E01A0912F01B09176
:1008200030018093310190933201A0933301B09352
:10083000340189E092E090933601809335018985F7
:10084000809337018AE090E0A0E0B0E08093380127
:1008500090933901A0933A01B0933B018091380104
:1008600090913901A0913A01B0913B0180933C01F4
:1008700090933D01A0933E01B0933F0181E992E046
:100880009093410180934001809112019091130156
:10089000FC0181819281A381B4818B839C83AD8390
:1008A000BE8381E090E09A83898321C089819A8107
:1008B000880F991F8E5E9E4FFC0180819181FC0103
:1008C00021813281438154818B819C81AD81BE81A4
:1008D000BC01CD010E949301DC01CB018B839C8381
:1008E000AD83BE8389819A8101969A838983298108
:1008F0003A818F81988528173907C0F28B819C81B6
:10090000AD81BE81BC01CD010E946E000E949C00A1
:100910001A8219827FC089819A81880F991F8E5E01
:100920009E4FFC0180819181FC01258136814781A8
:10093000508589819A81880F991F8E5E9E4FFC0198
:1009400080819181FC0181819281A381B4812817EA
:1009500039074A075B07A9F589819A81880F991F92
:100960008E5E9E4FFC010081118189819A81880FE2
:10097000991F8E5E9E4FFC0180819181FC01218533
:10098000328589819A81880F991F8E5E9E4FFC0166
:1009900080819181FC018081082E000C990BF90166
:1009A0000995F801808389819A81880F991F8E5E4D
:1009B0009E4FFC0180819181FC0115821682178275
:1009C000108689819A81880F991F8E5E9E4FFC0147
:1009D0006081718189819A81880F991F8E5E9E4FF7
:1009E000FC0180819181FC01258136814781508500
:1009F0008B819C81AD81BE81820F931FA41FB51F87
:100A0000FB0185839683A783B08789819A810196AC
:100A10009A83898329813A818F819885281739079C
:100A200008F479CF0000809124018823E1F310922B
:100A300024016ECFA1E21A2EAA1BBB1BFD010DC023
:100A4000AA1FBB1FEE1FFF1FA217B307E407F5077E
:100A500020F0A21BB30BE40BF50B661F771F881F5A
:100A6000991F1A9469F760957095809590959B01F0
:100A7000AC01BD01CF010895EE0FFF1F0024001C43
:0E0A80000BBE0790F691E02D0994F894FFCF7D
:100A8E00010000000000000200000000E001000074
:100A9E0000002C01370101020408102040800307DA
:040AAE000F01030031
:00000001FF
