:100000000C9446000C9465000C9465000C946500FB
:100010000C9465000C9465000C9465000C946500CC
:100020000C9465000C9465000C9465000C946500BC
:100030000C9465000C9465000C9465000C946500AC
:100040000C9465000C9465000C9465000C9465009C
:100050000C9465000C9465000C9465000C9465008C
:100060000C9465000C9465000C9465000C9465007C
:100070000C9465000C9465000C9465000C9465006C
:100080000C9465000C9465000C94650011241FBE4F
:10009000CFEFD0E4DEBFCDBF11E0A0E0B1E0EAEFEA
:1000A000F6E000E00BBF02C007900D92A632B10748
:1000B000D9F721E0A6E2B1E001C01D92AD32B2074E
:1000C000E1F70E94CC010C947B030C940000CF93C9
:1000D000DF9300D01F92CDB7DEB789837B836A831D
:1000E00089818A3031F48A819B81BC018DE00E9434
:1000F000670080EC90E0FC018081882F90E08072A6
:100100009927892BB1F386EC90E02981FC012083AB
:1001100080E090E00F900F900F90DF91CF910895C5
:100120000F931F93CF93DF9300D000D0CDB7DEB7EE
:1001300069837A838B839C83809127019091280126
:10014000A0912901B0912A019C01AD0169817A81B8
:100150008B819C810E94E701882309F477C020E00D
:1001600030E0A90169817A818B819C810E94E7013D
:10017000882351F481E990E021E930E0F901208100
:100180002870FC01208309C081E990E021E930E07A
:10019000F90120812360FC01208328E539E344E74D
:1001A0005FE369817A818B819C810E94E7018823CA
:1001B00044F488E990E02FEF3FEFFC013183208386
:1001C00034C020E034E244EF56E469817A818B81C7
:1001D0009C810E940903181634F488E990E0FC0120
:1001E0001182108222C008E910E020E030E040E0F7
:1001F00053E469817A818B819C810E940E03DC012A
:10020000CB019C01AD0160E074E284EF9AE40E94AE
:10021000EC01DC01CB01BC01CD010E945E02DC01DE
:10022000CB010197F8019183808384E990E0FC0180
:100230001182108289819A81AB81BC8180932701D0
:1002400090932801A0932901B0932A0100000F90F8
:100250000F900F900F90DF91CF911F910F91089504
:10026000CF93DF93CDB7DEB780E990E020E4FC01C7
:10027000208381E990E02BE0FC01208360E070E0C6
:10028000CB010E9490000000DF91CF910895CF93A1
:10029000DF93CDB7DEB780E990E0FC01108281E901
:1002A00090E0FC0110820000DF91CF910895CF9380
:1002B000DF93CDB7DEB780912B0190912C01813077
:1002C000910569F08130910518F0029701F131C074
:1002D00081E090E090932C0180932B012AC080E272
:1002E00090E0FC018081882F90E081709927892B14
:1002F00039F482E090E090932C0180932B0119C097
:1003000081E090E090932C0180932B0112C08091AA
:100310002601863038F482E090E090932C0180939F
:100320002B0106C081E090E090932C0180932B017B
:10033000000080912B0190912C018130910519F0E2
:10034000029749F025C060E070E0CB010E94900068
:10035000109226011DC0809126018630C0F4809144
:100360002601882F90E0880F991F880F991F825FC0
:100370009E4FFC0180819181A281B381BC01CD019E
:100380000E949000809126018F5F809326010000DB
:100390000000DF91CF910895CF93DF93CDB7DEB703
:1003A00081E290E0FC01108282E290E02FEFFC01FC
:1003B000208384E290E02FEFFC01208385E290E02F
:1003C000FC0110820E9430010E945701FDCF0E9463
:1003D000940208F481E008950E9400020C94CF0278
:1003E0000E94C80258F00E94C10240F029F45F3F09
:1003F00029F00C94B80251110C9403030C94BE0222
:100400000E94E00268F39923B1F3552391F3951B01
:10041000550BBB27AA2762177307840738F09F5F25
:100420005F4F220F331F441FAA1FA9F335D00E2E92
:100430003AF0E0E832D091505040E695001CCAF7FF
:100440002BD0FE2F29D0660F771F881FBB1F2617C2
:1004500037074807AB07B0E809F0BB0B802DBF0199
:10046000FF2793585F4F3AF09E3F510578F00C9468
:10047000B8020C9403035F3FE4F3983ED4F38695EF
:1004800077956795B795F7959F5FC9F7880F911D89
:100490009695879597F90895E1E0660F771F881F75
:1004A000BB1F621773078407BA0720F0621B730B28
:1004B000840BBA0BEE1F88F7E09508950E94650241
:1004C0006894B1110C94030308950E94E80288F027
:1004D0009F5798F0B92F9927B751B0F0E1F0660F08
:1004E000771F881F991F1AF0BA95C9F714C0B13049
:1004F00091F00E940203B1E008950C940203672F6B
:10050000782F8827B85F39F0B93FCCF38695779577
:100510006795B395D9F73EF4909580957095619560
:100520007F4F8F4F9F4F0895990F0008550FAA0BCB
:10053000E0E8FEEF16161706E807F907C0F01216F6
:100540001306E407F50798F0621B730B840B950BF9
:1005500039F40A2661F0232B242B252B21F408954E
:100560000A2609F4A140A6958FEF811D811D0895EB
:1005700097F99F6780E870E060E008959FEF80EC56
:10058000089500240A9416161706180609060895F9
:1005900000240A9412161306140605060895092E5F
:1005A0000394000C11F4882352F0BB0F40F4BF2BCE
:1005B00011F460FF04C06F5F7F4F8F4F9F4F08950E
:1005C00057FD9058440F551F59F05F3F71F0479504
:1005D000880F97FB991F61F09F3F79F087950895E9
:1005E000121613061406551FF2CF4695F1DF08C008
:1005F000161617061806991FF1CF86957105610525
:1006000008940895E894BB2766277727CB0197F9CC
:1006100008950E94940208F48FEF08950E94210328
:100620000C94CF020E94C10238F00E94C80220F050
:10063000952311F00C94B8020C94BE0211240C9472
:1006400003030E94E00270F3959FC1F3950F50E001
:10065000551F629FF001729FBB27F00DB11D639F74
:10066000AA27F00DB11DAA1F649F6627B00DA11D1A
:10067000661F829F2227B00DA11D621F739FB00DC0
:10068000A11D621F839FA00D611D221F749F332730
:10069000A00D611D231F849F600D211D822F762FC9
:1006A0006A2F11249F5750409AF0F1F088234AF0A6
:1006B000EE0FFF1FBB1F661F771F881F9150504012
:1006C000A9F79E3F510580F00C94B8020C940303E7
:1006D0005F3FE4F3983ED4F3869577956795B79599
:1006E000F795E7959F5FC1F7FE2B880F911D9695B3
:0A06F000879597F90895F894FFCF5D
:1006FA00000000020000000067000000000000D0B7
:10070A0002447BD492430000DC430000C44300D07F
:06071A0002440000DC4374
:00000001FF
