:100000000C9457000C9476000C9476000C947600B7
:100010000C9476000C9476000C9476000C94760088
:100020000C9476000C9476000C9476000C94760078
:100030000C9476000C9476000C9476000C94760068
:100040000C9476000C9476000C9476000C94760058
:100050000C9476000C9476000C9476000C94760048
:100060000C9476000C9476000C9476000C94760038
:100070000C9476000C9476000C9476000C94760028
:100080000C9476000C9476000C947600BB00C200B1
:10009000C900FB0002011A012101390140016E0172
:1000A000B1017301B1018501B1019701B1011124C1
:1000B0001FBECFEFD0E4DEBFCDBF11E0A0E0B1E0C6
:1000C000E4EBF3E000E00BBF02C007900D92AE310D
:1000D000B107D9F721E0AEE1B1E001C01D92A23233
:1000E000B207E1F70E94B6010C94D8010C9400000D
:1000F000CF93DF9300D01F92CDB7DEB789837B8388
:100100006A8389818A3031F48A819B81BC018DE0C8
:100110000E94780080EC90E0FC018081882F90E0C4
:1001200080729927892BB1F386EC90E02981FC013C
:10013000208380E090E00F900F900F90DF91CF919F
:100140000895CF93DF93CDB7DEB7809120019091D2
:100150002101CC01A0E0B0E040E050E028E030E038
:10016000841B950B2817390708F4A2C08A5B9F4FA0
:10017000FC010C94CF0181E090E0909321018093E9
:10018000200196C082E090E09093210180932001AD
:100190008FC080911E01803138F087E090E090930D
:1001A00021018093200184C080E290E0FC018081E5
:1001B000882F90E081709927892BB1F480911F01DD
:1001C000882F90E081709927892B39F483E090E0A3
:1001D00090932101809320016BC085E090E0909383
:1001E00021018093200164C082E090E0909321017E
:1001F000809320015DC084E090E090932101809382
:10020000200156C080E290E0FC018081882F90E0C0
:1002100081709927892B39F484E090E09093210133
:100220008093200145C082E090E09093210180936B
:1002300020013EC086E090E0909321018093200150
:1002400037C080E290E0FC018081882F90E08170CF
:100250009927892B39F486E090E0909321018093CF
:10026000200126C082E090E090932101809320013C
:100270001FC088E090E0909321018093200118C076
:1002800080E290E0FC018081882F90E081709927C6
:10029000892B39F488E090E090932101809320012C
:1002A00006C082E090E0909321018093200100003D
:1002B0008091200190912101CC01A0E0B0E041E0CB
:1002C00050E027E030E0841B950B2817390708F42D
:1002D00043C0815B9F4FFC010C94CF0185E290E00D
:1002E000FC0110823FC085E290E020911E01222F88
:1002F00030E0225F3E4FF9012081FC012083809194
:100300001E018F5F80931E012DC085E290E0209139
:100310001E01222F30E0225F3E4FF9012081FC01B7
:10032000208380911E01815080931E011BC080910B
:100330001F01882F90E081709927892B39F481E083
:1003400080931F018EE080931E010CC010921F014C
:1003500081E080931E0106C085E290E0FC011082DE
:1003600001C000000000DF91CF910895CF93DF938B
:10037000CDB7DEB781E290E0FC01108282E290E02E
:100380002FEFFC01208384E290E02FEFFC0120831B
:1003900085E290E0FC0110820E94A100FDCFEE0FEB
:1003A000FF1F0024001C0BBE0790F691E02D09945E
:0403B000F894FFCFEF
:1003B40000000002000000007800000000000C12A1
:0E03C40021120C000C1E3F0001020408102044
:00000001FF
