:100000000C9446000C9465000C9465000C946500FB
:100010000C9465000C9465000C9465000C946500CC
:100020000C9465000C9465000C9465000C946500BC
:100030000C9465000C94E3000C9465000C9465002E
:100040000C9465000C9465000C9465000C9465009C
:100050000C9465000C9465000C9465000C9465008C
:100060000C9465000C9465000C9465000C9465007C
:100070000C9465000C9465000C9465000C9465006C
:100080000C9465000C9465000C94650011241FBE4F
:10009000CFEFD0E4DEBFCDBF11E0A0E0B1E0E8E2F9
:1000A000F1E100E00BBF02C007900D92AA35B10745
:1000B000D9F721E0AAE5B1E001C01D92A738B20747
:1000C000E1F70E943A050C9492080C940000CF933B
:1000D000DF9300D000D0CDB7DEB769837A838B83FE
:1000E0009C8389819A81AB81BC818093000190932C
:1000F0000101A0930201B09303018091000190914E
:100100000101A0910201B091030180935B019093E2
:100110005C01A0935D01B0935E0100000F900F9011
:100120000F900F90DF91CF910895CF93DF93CDB7CC
:10013000DEB781E890E02BE0FC01208388E890E0C6
:100140002DE730E0FC01318320838FE690E022E050
:10015000FC01208384E890E0FC01118210828091F0
:10016000000190910101A0910201B09103018093DF
:100170005B0190935C01A0935D01B0935E018FE5FC
:1001800090E02FE530E0F90120812068FC01208318
:100190000000DF91CF910895CF93DF93CDB7DEB705
:1001A00081E890E0FC0110820000DF91CF9108957A
:1001B000CF93DF93CDB7DEB781E080935A01000083
:1001C000DF91CF9108951F920F9200905F000F92E0
:1001D000112400905B000F922F933F934F935F93F6
:1001E0006F937F938F939F93AF93BF93EF93FF93FF
:1001F000CF93DF93CDB7DEB780915B0190915C0127
:10020000A0915D01B0915E010197A109B1098093B0
:100210005B0190935C01A0935D01B0935E018091BE
:100220005B0190915C01A0915D01B0915E01892B11
:100230008A2B8B2B91F40E94D80080910001909121
:100240000101A0910201B091030180935B019093A1
:100250005C01A0935D01B0935E010000DF91CF913E
:10026000FF91EF91BF91AF919F918F917F916F918E
:100270005F914F913F912F910F9000925B000F90F3
:1002800000925F000F901F901895CF93DF9300D0DE
:100290001F92CDB7DEB789836A834B838B81882316
:1002A00071F08A81282F30E081E090E002C0880F51
:1002B000991F2A95E2F7982F8981892B0EC08A8190
:1002C000282F30E081E090E002C0880F991F2A9526
:1002D000E2F7982F9095898189230F900F900F90C6
:1002E000DF91CF910895CF93DF9300D0CDB7DEB7E4
:1002F00089836A838A81282F30E081E090E002C000
:10030000880F991F2A95E2F7982F898189230F90EA
:100310000F90DF91CF910895CF93DF93CDB7DEB7E4
:100320002C970FB6F894DEBF0FBECDBF6D837E83D2
:100330008F83988729873A874B875C878D819E8139
:10034000AF81B88529853A854B855C85BC01CD0197
:100350000E94DC06DC01CB0189839A83AB83BC83DA
:1003600089819A81AB81BC81892B8A2B8B2B29F4C3
:1003700089859A85AB85BC8511C089859A85AB85B1
:10038000BC858D839E83AF83B88789819A81AB8139
:10039000BC8189879A87AB87BC87D0CFBC01CD0150
:1003A0002C960FB6F894DEBF0FBECDBFDF91CF9174
:1003B00008950F931F93CF93DF93CDB7DEB708E275
:1003C00010E040E064E08FEF0E944501F801808377
:1003D000000086E290E0FC018081809560E00E9450
:1003E0007301882311F081E3D3C086E290E0FC0121
:1003F0008081809561E00E947301882311F084E37D
:10040000C7C086E290E0FC018081809562E00E9496
:100410007301882311F087E3BBC086E290E0FC0102
:100420008081809563E00E947301882311F08AE245
:10043000AFC008E210E040E065E08FEF0E944501A8
:10044000F8018083000086E290E0FC0180818095C5
:1004500060E00E947301882311F082E399C086E274
:1004600090E0FC018081809561E00E947301882307
:1004700011F085E38DC086E290E0FC0180818095DB
:1004800062E00E947301882311F088E381C086E254
:1004900090E0FC018081809563E00E9473018823D5
:1004A00011F080E375C008E210E040E066E08FEFF5
:1004B0000E944501F8018083000086E290E0FC0183
:1004C0008081809560E00E947301882311F083E3AE
:1004D0005FC086E290E0FC018081809561E00E942F
:1004E0007301882311F086E353C086E290E0FC019B
:1004F0008081809562E00E947301882311F089E376
:1005000047C086E290E0FC018081809563E00E9414
:100510007301882311F083E23BC008E210E040E061
:1005200067E08FEF0E944501F8018083000086E2BA
:1005300090E0FC018081809560E00E947301882337
:1005400011F081E425C086E290E0FC018081809575
:1005500061E00E947301882311F082E419C086E2F1
:1005600090E0FC018081809562E00E947301882305
:1005700011F083E40DC086E290E0FC01808180955B
:1005800063E00E947301882311F084E401C080E0DD
:10059000DF91CF911F910F9108950F931F93CF93E8
:1005A000DF9300D000D0CDB7DEB769837A838B8329
:1005B0009C838091620190916301A0916401B0914C
:1005C00065019C01AD0169817A818B819C810E94CA
:1005D000FE06882309F477C020E030E0A901698194
:1005E0007A818B819C810E94FE06882351F481E9E7
:1005F00090E021E930E0F90120812870FC0120839E
:1006000009C081E990E021E930E0F901208123600F
:10061000FC01208328E539E344E75FE369817A81BF
:100620008B819C810E94FE06882344F488E990E037
:100630002FEF3FEFFC013183208334C020E034E210
:1006400044EF56E469817A818B819C810E94200865
:10065000181634F488E990E0FC011182108222C05F
:1006600008E910E020E030E040E053E469817A815D
:100670008B819C810E942508DC01CB019C01AD018E
:1006800060E074E284EF9AE40E940307DC01CB018E
:10069000BC01CD010E947507DC01CB010197F80177
:1006A0009183808384E990E0FC011182108289812A
:1006B0009A81AB81BC818093620190936301A09386
:1006C0006401B093650100000F900F900F900F90A0
:1006D000DF91CF911F910F910895CF93DF93CDB705
:1006E000DEB780E990E020E4FC01208381E990E01E
:1006F0002BE0FC01208360E070E0CB010E94CD0282
:100700000000DF91CF910895CF93DF93CDB7DEB78F
:1007100080E990E0FC01108281E990E0FC01108208
:100720000000DF91CF910895CF93DF9300D01F9207
:10073000CDB7DEB789837B836A8389818A3031F4C0
:100740008A819B81BC018DE00E94940380EC90E043
:10075000FC018081882F90E080729927892BB1F36A
:1007600086EC90E02981FC01208380E090E00F90EE
:100770000F900F90DF91CF910895CF93DF9300D02A
:10078000CDB7DEB79A8389830E94D90180935F0138
:1007900089819A818230910571F1833091052CF421
:1007A000009771F0019789F081C08430910509F4B8
:1007B00047C08430910524F1059709F469C076C0DB
:1007C00081E090E09A83898374C080916001882FD2
:1007D00090E08E5E9E4FFC01908180915F019817A2
:1007E00029F482E090E09A83898363C081E090E0FD
:1007F0009A8389835EC083E090E09A83898359C09D
:1008000080916001882F90E001978E5E9E4FFC01E1
:10081000908180915F01981729F483E090E09A839A
:10082000898347C080915F01882329F484E090E0A8
:100830009A8389833EC081E090E09A83898339C09E
:1008400080916001863029F485E090E09A83898365
:1008500030C080915F01882329F484E090E09A837E
:10086000898327C080916001882F90E08E5E9E4F23
:10087000FC01908180915F01981729F482E090E05B
:100880009A83898316C081E090E09A83898311C09E
:1008900080915F01882329F485E090E09A83898321
:1008A00008C081E090E09A83898303C01A8219828C
:1008B000000089819A818330910531F1843091055E
:1008C00034F48130910549F0029771F022C08430F0
:1008D000910581F00597D1F01CC01092600185E26E
:1008E00090E0FC01108215C0809160018F5F8093C1
:1008F00060010FC080916001863051F485E290E084
:1009000021E0FC01208304C0000003C0000001C0FE
:10091000000089819A810F900F90DF91CF91089507
:10092000CF93DF9300D0CDB7DEB79A8389838981D7
:100930009A818130910551F082309105B9F0892B6F
:10094000D1F481E090E09A83898318C083E290E03B
:10095000FC01808188232CF082E090E09A838983D7
:100960000DC081E090E09A83898308C081E090E027
:100970009A83898303C01A821982000089819A812F
:100980008130910541F0029709F006C085E290E0C0
:10099000FC01108201C0000089819A810F900F90A4
:1009A000DF91CF910895CF93DF9300D0CDB7DEB71D
:1009B0009A83898389819A818130910551F08230AF
:1009C0009105B9F0892B19F581E090E09A8389832C
:1009D00021C080E290E0FC01808188232CF082E03D
:1009E00090E09A83898316C081E090E09A8389839E
:1009F00011C0809161018F3028F482E090E09A83E9
:100A0000898308C081E090E09A83898303C01A82B9
:100A10001982000089819A818130910519F002972D
:100A200049F021C01092610160E070E0CB010E94AA
:100A3000CD0219C080916101882F90E0880F991F25
:100A4000880F991F885E9E4FFC0180819181A28151
:100A5000B381BC01CD010E94CD02809161018F5F05
:100A600080936101000089819A810F900F90DF913E
:100A7000CF9108950F931F93CF93DF93CDB7DEB738
:100A80002F970FB6F894DEBF0FBECDBF81E290E086
:100A9000FC01108282E290E02FEFFC01208384E2CF
:100AA00090E02FE7FC01208385E290E020E8FC0144
:100AB000208387E290E020EFFC01208388E290E031
:100AC0002FE0FC0120830E946D0386E0E4E5F1E065
:100AD000DE011A9601900D928A95E1F783E090E08D
:100AE00098878F838FEF898789858093660182E35A
:100AF00090E0A0E0B0E08093670190936801A0933C
:100B00006901B0936A018091670190916801A09199
:100B10006901B0916A0180936B0190936C01A0937D
:100B20006D01B0936E018DEB93E090937001809313
:100B30006F0189858093710189E190E0A0E0B0E0C8
:100B40008093720190937301A0937401B093750127
:100B50008091720190917301A0917401B09175011F
:100B60008093760190937701A0937801B0937901F7
:100B700080E994E090937B0180937A01898580934A
:100B80007C0188EC90E0A0E0B0E080937D01909340
:100B90007E01A0937F01B093800180917D019091AF
:100BA0007E01A0917F01B09180018093810190939B
:100BB0008201A0938301B093840183ED94E090932C
:100BC0008601809385018A859B85FC0181819281C4
:100BD000A381B4818B839C83AD83BE8381E090E04D
:100BE0009A83898325C089819A81880F991F9E01E4
:100BF0002F5F3F4F820F931F0996FC0180819181E7
:100C0000FC0121813281438154818B819C81AD81A2
:100C1000BE81BC01CD010E948C01DC01CB018B8324
:100C20009C83AD83BE8389819A8101969A8389834F
:100C300029813A818F81988528173907A0F28B8105
:100C40009C81AD81BE81BC01CD010E9467000E94E4
:100C500095001A821982A0C089819A81880F991FF4
:100C60009E012F5F3F4F820F931F0996FC018081E9
:100C70009181FC01258136814781508589819A8146
:100C8000880F991FBE016F5F7F4F860F971F0996D0
:100C9000FC0180819181FC0181819281A381B481D9
:100CA000281739074A075B0709F045C089819A81EF
:100CB000880F991F9E012F5F3F4F820F931F099648
:100CC000FC010081118189819A81880F991F9E0101
:100CD0002F5F3F4F820F931F0996FC018081918106
:100CE000FC012185328589819A81880F991FAE0187
:100CF0004F5F5F4F840F951F0996FC0180819181A2
:100D0000FC018081082E000C990BF9010995F8016E
:100D1000808389819A81880F991F9E012F5F3F4FA1
:100D2000820F931F0996FC0180819181FC0115823D
:100D300016821782108689819A81880F991F9E01D9
:100D40002F5F3F4F820F931F0996FC0160817181D5
:100D500089819A81880F991F9E012F5F3F4F820FD3
:100D6000931F0996FC0180819181FC0125813681C8
:100D7000478150858B819C81AD81BE81820F931FFD
:100D8000A41FB51FFB0185839683A783B087898144
:100D90009A8101969A83898329813A818F819885E6
:100DA0002817390708F458CF000080915A0188238A
:100DB000E1F310925A014DCFA1E21A2EAA1BBB1BE0
:100DC000FD010DC0AA1FBB1FEE1FFF1FA217B30717
:100DD000E407F50720F0A21BB30BE40BF50B661F2D
:100DE000771F881F991F1A9469F7609570958095F1
:100DF00090959B01AC01BD01CF0108950E94AB0706
:100E000008F481E008950E9417070C94E6070E94F9
:100E1000DF0758F00E94D80740F029F45F3F29F01F
:100E20000C94CF0751110C941A080C94D5070E940A
:100E3000F70768F39923B1F3552391F3951B550BED
:100E4000BB27AA2762177307840738F09F5F5F4F9D
:100E5000220F331F441FAA1FA9F335D00E2E3AF0DC
:100E6000E0E832D091505040E695001CCAF72BD0F4
:100E7000FE2F29D0660F771F881FBB1F2617370745
:100E80004807AB07B0E809F0BB0B802DBF01FF2777
:100E900093585F4F3AF09E3F510578F00C94CF077E
:100EA0000C941A085F3FE4F3983ED4F38695779547
:100EB0006795B795F7959F5FC9F7880F911D969530
:100EC000879597F90895E1E0660F771F881FBB1F8C
:100ED000621773078407BA0720F0621B730B840B39
:100EE000BA0BEE1F88F7E09508950E947C0768947E
:100EF000B1110C941A0808950E94FF0788F09F57BB
:100F000098F0B92F9927B751B0F0E1F0660F771F2D
:100F1000881F991F1AF0BA95C9F714C0B13091F023
:100F20000E941908B1E008950C941908672F782FD2
:100F30008827B85F39F0B93FCCF3869577956795E8
:100F4000B395D9F73EF490958095709561957F4F54
:100F50008F4F9F4F0895990F0008550FAA0BE0E897
:100F6000FEEF16161706E807F907C0F0121613066B
:100F7000E407F50798F0621B730B840B950B39F4AB
:100F80000A2661F0232B242B252B21F408950A2611
:100F900009F4A140A6958FEF811D811D089597F951
:100FA0009F6780E870E060E008959FEF80EC08950F
:100FB00000240A9416161706180609060895002438
:100FC0000A9412161306140605060895092E0394B2
:100FD000000C11F4882352F0BB0F40F4BF2B11F426
:100FE00060FF04C06F5F7F4F8F4F9F4F089557FD85
:100FF0009058440F551F59F05F3F71F04795880F87
:1010000097FB991F61F09F3F79F08795089512161D
:1010100013061406551FF2CF4695F1DF08C01616C9
:1010200017061806991FF1CF86957105610508947A
:101030000895E894BB2766277727CB0197F9089591
:101040000E94AB0708F48FEF08950E9438080C94B3
:10105000E6070E94D80738F00E94DF0720F09523AA
:1010600011F00C94CF070C94D50711240C941A0896
:101070000E94F70770F3959FC1F3950F50E0551F3D
:10108000629FF001729FBB27F00DB11D639FAA27DD
:10109000F00DB11DAA1F649F6627B00DA11D661F2C
:1010A000829F2227B00DA11D621F739FB00DA11D4D
:1010B000621F839FA00D611D221F749F3327A00D07
:1010C000611D231F849F600D211D822F762F6A2FA3
:1010D00011249F5750409AF0F1F088234AF0EE0F08
:1010E000FF1FBB1F661F771F881F91505040A9F735
:1010F0009E3F510580F00C94CF070C941A085F3F77
:10110000E4F3983ED4F3869577956795B795F79570
:10111000E7959F5FC1F7FE2B880F911D96958795E8
:0811200097F90895F894FFCF40
:10112800010000000000000200000000940300001D
:101138000000233132333435719DAE430000000086
:10114800719DAE4300000000719DAE437BD4924375
:10115800719DAE430000DC43A4D082430000C44329
:1011680000D002440000C4437BD49243A4D0A443DB
:0A117800A4D0A443660171017C01BC
:00000001FF
