:100000000C9455000C9474000C9474000C947400BF
:100010000C9474000C9474000C9474000C94740090
:100020000C9474000C9474000C9474000C94740080
:100030000C9474000C944B020C9474000C94740097
:100040000C9474000C9474000C9474000C94740060
:100050000C9474000C9474000C9474000C94740050
:100060000C9474000C9474000C9474000C94740040
:100070000C9474000C9474000C9474000C94740030
:100080000C9474000C9474000C947400B900C000BB
:10009000C70001014B01950126017001B301F40174
:1000A000B901D101E901CB01E30111241FBECFEF5A
:1000B000D0E4DEBFCDBF11E0A0E0B1E0ECE1F6E0BE
:1000C00000E00BBF02C007900D92A231B107D9F733
:1000D00021E0A2E1B1E001C01D92AA31B207E1F72F
:1000E0000E94DB020C940C030C940000CF93DF936E
:1000F00000D01F92CDB7DEB789837B836A83898165
:100100008A3031F48A819B81BC018DE00E947600A7
:1001100080EC90E0FC018081882F90E0807299272C
:10012000892BB1F386EC90E02981FC01208380E0EB
:1001300090E00F900F900F90DF91CF910895CF93A3
:10014000DF93CDB7DEB78091180190911901CC01F2
:10015000A0E0B0E040E050E027E030E0841B950BE9
:100160002817390708F4E9C08A5B9F4FFC010C94FB
:10017000030381E090E09093190180931801DDC0A2
:1001800082E090E09093190180931801D6C080E23C
:1001900090E0FC018081882F90E08095909583709D
:1001A0009927039739F485E090E0909319018093A3
:1001B0001801C2C080E290E0FC018081882F90E0AD
:1001C0008095909583709927019739F483E090E0AA
:1001D0009093190180931801AFC080E290E0FC0178
:1001E0008081882F90E08095909583709927029761
:1001F00009F0A2C084E090E0909319018093180167
:100200009BC080911701893039F482E090E090938F
:1002100019018093180191C080E290E0FC01808177
:10022000882F90E08095909583709927019739F4F5
:1002300086E090E090931901809318017EC082E0DF
:1002400090E0909319018093180177C08091170175
:10025000893039F483E090E090931901809318017C
:100260006CC080E290E0FC018081882F90E0809556
:10027000909583709927019739F486E090E09093E8
:1002800019018093180159C082E090E09093190100
:100290008093180152C080911701893039F482E0AF
:1002A00090E0909319018093180147C080E290E09C
:1002B000FC018081882F90E080959095837099272C
:1002C000029739F487E090E0909319018093180128
:1002D00034C082E090E090931901809318012DC002
:1002E00080911701893039F484E090E090931901EE
:1002F0008093180122C080E290E0FC018081882F69
:1003000090E08095909583709927029739F487E063
:1003100090E090931901809318010FC082E090E063
:10032000909319018093180108C082E090E09093A7
:1003300019018093180101C000008091180190916B
:100340001901CC01A0E0B0E041E050E026E030E04F
:10035000841B950B2817390708F440C0825B9F4F18
:10036000FC010C94030385E290E027E0FC0120836C
:1003700040C01092170185E290E0FC018081893035
:10038000A8F585E290E025E230E0F90120812F5FB9
:10039000FC0120832BC0809117018F5F8093170190
:1003A00028C01092170185E290E0FC01808188232B
:1003B000F9F085E290E025E230E0F901208121505A
:1003C000FC01208315C0809117018F5F8093170176
:1003D00010C085E290E0FC0110820BC085E290E045
:1003E00027E0FC01208305C0000003C0000001C01D
:1003F00000000000DF91CF910895CF93DF93CDB738
:10040000DEB781E890E02BE0FC01208388E890E0F3
:100410002DE730E0FC01318320838FE690E022E07D
:10042000FC01208384E890E0FC011182108280911D
:100430000E0190910F01A0911001B09111018093D4
:10044000130190931401A0931501B09316018FE549
:1004500090E02FE530E0F90120812068FC01208345
:100460000000DF91CF910895CF93DF93CDB7DEB732
:1004700081E890E0FC0110820000DF91CF910895A7
:10048000CF93DF93CDB7DEB781E0809312010000F8
:10049000DF91CF9108951F920F9200905F000F920D
:1004A000112400905B000F922F933F934F935F9323
:1004B0006F937F938F939F93AF93BF93EF93FF932C
:1004C000CF93DF93CDB7DEB78091130190911401E4
:1004D000A0911501B09116010197A109B10980936E
:1004E000130190931401A0931501B093160180910C
:1004F000130190911401A0911501B0911601892B5F
:100500008A2B8B2B91F40E94400280910E019091D6
:100510000F01A0911001B0911101809313019093EC
:100520001401A0931501B09316010000DF91CF9143
:10053000FF91EF91BF91AF919F918F917F916F91BB
:100540005F914F913F912F910F9000925B000F9020
:1005500000925F000F901F901895CF93DF9300D00B
:1005600000D0CDB7DEB769837A838B839C83898182
:100570009A81AB81BC8180930E0190930F01A0936F
:100580001001B093110180910E0190910F01A09183
:100590001001B09111018093130190931401A09365
:1005A0001501B093160100000F900F900F900F905F
:1005B000DF91CF910895CF93DF93CDB7DEB781E27E
:1005C00090E0FC01108282E290E02FEFFC0120839A
:1005D00084E290E02FEFFC01208385E290E0FC01B3
:1005E000108264E670E080E090E00E94AD020E941C
:1005F000FD010E949F000000809112018823E1F319
:1006000010921201F6CFEE0FFF1F0024001C0BBE4C
:0C0610000790F691E02D0994F894FFCFBC
:10061C000000000200000000760000000000010055
:02062C000000CC
:00000001FF
