:100000000C9446000C945D000C945D000C945D0013
:100010000C945D000C945D000C945D000C945D00EC
:100020000C945D000C945D000C945D000C945D00DC
:100030000C945D000C945D000C945D000C945D00CC
:100040000C945D000C945D000C945D000C945D00BC
:100050000C945D000C945D000C945D000C945D00AC
:100060000C945D000C945D000C945D000C945D009C
:100070000C945D000C945D000C945D000C945D008C
:100080000C945D000C945D000C945D0011241FBE67
:10009000CFEFD0E4DEBFCDBF11E0A0E0B1E0E0EFF4
:1000A000F2E000E00BBF02C007900D92AE30B10746
:1000B000D9F70E9499000C9476010C940000CF931C
:1000C000DF9300D01F92CDB7DEB789837B836A832D
:1000D00089818A3031F48A819B81BC018DE00E9444
:1000E0005F0080EC90E0FC018081882F90E08072BE
:1000F0009927892BB1F386EC90E02981FC012083BC
:1001000080E090E00F900F900F90DF91CF910895D5
:10011000CF93DF93CDB7DEB78AE790E02AE730E0F0
:10012000F9012081206EFC0120830000DF91CF9136
:100130000895CF93DF9300D000D0CDB7DEB781E232
:1001400090E0FC01108282E290E02FEFFC0120831E
:1001500084E290E02FEFFC01208385E290E0FC0137
:1001600010828AE290E02FEFFC0120838BE290E086
:10017000FC0110821A82198280E893E09C838B83B1
:100180000E94880088E790E0FC01808191819A8339
:10019000898329813A818B819C812817390731F421
:1001A00085E290E02FEFFC012083ECCF2B813C8196
:1001B000C901880F991F880F991F880F991F821BEB
:1001C000930B9C013695279536952795369527955F
:1001D00089819A818217930730F085E290E02FE7BA
:1001E000FC012083CFCF2B813C81C901880F991F4F
:1001F000820F931F880F991F9C013695279536957E
:1002000027953695279589819A818217930730F033
:1002100085E290E02FE3FC012083B4CF2B813C8169
:10022000C901880F991F880F991F820F931F9C0186
:1002300036952795369527953695279589819A8104
:100240008217930730F085E290E02FE1FC012083D4
:1002500099CF8B819C81880F991F880F991F9C01D2
:1002600036952795369527953695279589819A81D4
:100270008217930730F085E290E02FE0FC012083A5
:1002800081CF2B813C81C901880F991F820F931F59
:100290009C01369527953695279536952795898122
:1002A0009A818217930730F085E290E027E0FC0105
:1002B000208368CF8B819C81880F991F9C01369584
:1002C0002795369527953695279589819A818217A6
:1002D000930730F085E290E023E0FC01208352CFC9
:1002E00085E290E021E0FC0120834CCFF894FFCF21
:0E02F00000000002000000005F00000000009F
:00000001FF
